:020000040800F2
:10000000600600206D0100087501000877010008F6
:10001000790100087B0100087D0100080000000054
:100020000000000000000000000000007F01000848
:10003000810100080000000083010008850100081C
:100040008701000887010008870100088701000870
:100050008701000887010008870100088701000860
:100060008701000887010008870100088701000850
:100070008701000887010008870100088701000840
:100080008701000887010008870100088701000830
:100090008701000887010008870100088701000820
:1000A0008701000887010008870100088701000810
:1000B0008701000887010008870100088701000800
:1000C00087010008870100088701000887010008F0
:1000D00087010008870100088701000887010008E0
:1000E00087010008870100088701000800F002F876
:1000F00000F02CF80AA090E8000C82448344AAF196
:100100000107DA4501D100F021F8AFF2090EBAE893
:100110000F0013F0010F18BFFB1A43F0010318473B
:10012000EC030000FC03000000230024002500264F
:10013000103A28BF78C1FBD8520728BF30C148BF4A
:100140000B6070471FB51FBD10B510BD00F031F832
:100150001146FFF7F7FF00F0BBF900F04FF803B4CA
:10016000FFF7F2FF03BC00F057F800000948804792
:1001700009480047FEE7FEE7FEE7FEE7FEE7FEE789
:10018000FEE7FEE7FEE7FEE704480549054A064BA1
:100190007047000079040008ED00000860000020AE
:1001A0006006002060020020600200207047704757
:1001B0007047754600F02CF8AE4605006946534678
:1001C00020F00700854618B020B5FFF7DDFFBDE839
:1001D00020404FF000064FF000074FF000084FF0AE
:1001E000000BAC46ACE8C009ACE8C009ACE8C009FB
:1001F000ACE8C00921F007018D46704710B50446F0
:10020000AFF300802046BDE81040FFF7A8BF000014
:10021000004870470000002001491820ABBEFEE7EF
:10022000260002007047000080B51C20012100F06C
:10023000B3F880BD81B00090009828B100980138D3
:10024000009000980028F9D101B0704710B582B035
:1002500040F60004C4F2010438B90120C4F60200DB
:10026000019001A9204600F035F82046012100F058
:1002700089F8002818BF012002B010BD70B582B007
:100280002D280C4608D0D0B9012640F60005ADF85F
:100290000460C4F2010509E040F60000C4F2010068
:1002A0004FF4005600F50065ADF8046041F202001D
:1002B000ADF8060001A9284600F00CF8FFE7B1B23E
:1002C00028461CB100F066F802B070BD00F060F87E
:1002D00002B070BD2DE9F041CA7802F00F0CD306D0
:1002E00044BF8B784CEA030C09880B0621D00568C3
:1002F00000234FF001084FF00F0E002608E000BF6A
:10030000282A08BF47610136082E03F104030FD0E5
:1003100008FA06F70F42F6D00EFA03F425EA0404B1
:100320000CFA03F5482A45EA0405E9D10761EAE732
:100330000560B1F5807F38BFBDE8F08144680023D7
:100340004FF4807E4FF00F08002607E0282A08BFF0
:1003500047610136082E03F1040310D00EFA06F7A8
:1003600007EA0105BD42F4D108FA03F5AC430CFAE3
:1003700003F5482A44EA0504E8D10761E9E7446047
:10038000BDE8F0818068084018BF01207047000078
:100390004161704701617047002941F21801C4F2C0
:1003A00002010A680CBF22EA00001043086070478F
:1003B00080B500F001F880BD82B041F20400002158
:1003C000C4F202000191009150F8041C41F4803104
:1003D00040F8041C50F8041C01F40031009101990C
:1003E00001310191009919B90199B1F5A06FF1D1CD
:1003F00050F8041C890354BF002101210091009989
:10040000012936D142F20001C4F202010A6842F029
:1004100010020A600A6822F003020A600A6842F0C9
:1004200002020A600168016001680160016841F42C
:1004300080610160016821F47C110160016841F470
:10044000E811016050F8041C41F0807140F8041C70
:1004500050F8041C8901FBD5016821F003010160FB
:10046000016841F002010160016801F00C010829F6
:10047000FAD102B07047000080B541F20000C4F22A
:1004800002000168002241F0010101604168CFF6DD
:10049000FF021140416001684FF6FF72CFF6F6622D
:1004A00011400160016821F480210160416821F45C
:1004B000FE0141604FF41F018160FFF779FF4EF6A6
:1004C0000850CEF200004FF00061016080BD0000D6
:1004D0004FF6FF74C0F20F04FFF7A6FE0020FFF7EF
:1004E000B5FE0128FAD005252D200021FFF7C6FE14
:1004F0002046FFF79FFE2D200121FFF7BFFE20467B
:10050000FFF798FE013DEFD1E8E700001C05000869
:0C05100000000020600600002801000828
:04000005080000ED02
:00000001FF
